{
  "address": "0xC304582cFeBB9e38B56E8629DBD6c9D89712d843",
  "abi": [
    {
      "inputs": [],
      "stateMutability": "nonpayable",
      "type": "constructor"
    },
    {
      "anonymous": false,
      "inputs": [
        {
          "indexed": true,
          "internalType": "address",
          "name": "_owner",
          "type": "address"
        },
        {
          "indexed": true,
          "internalType": "address",
          "name": "_approved",
          "type": "address"
        },
        {
          "indexed": true,
          "internalType": "uint256",
          "name": "_tokenId",
          "type": "uint256"
        }
      ],
      "name": "Approval",
      "type": "event"
    },
    {
      "anonymous": false,
      "inputs": [
        {
          "indexed": true,
          "internalType": "address",
          "name": "_owner",
          "type": "address"
        },
        {
          "indexed": true,
          "internalType": "address",
          "name": "_operator",
          "type": "address"
        },
        {
          "indexed": false,
          "internalType": "bool",
          "name": "_approved",
          "type": "bool"
        }
      ],
      "name": "ApprovalForAll",
      "type": "event"
    },
    {
      "anonymous": false,
      "inputs": [
        {
          "indexed": true,
          "internalType": "address",
          "name": "_from",
          "type": "address"
        },
        {
          "indexed": true,
          "internalType": "address",
          "name": "_to",
          "type": "address"
        },
        {
          "indexed": true,
          "internalType": "uint256",
          "name": "_tokenId",
          "type": "uint256"
        }
      ],
      "name": "Transfer",
      "type": "event"
    },
    {
      "inputs": [
        {
          "internalType": "address",
          "name": "_approved",
          "type": "address"
        },
        {
          "internalType": "uint256",
          "name": "_tokenId",
          "type": "uint256"
        }
      ],
      "name": "approve",
      "outputs": [],
      "stateMutability": "nonpayable",
      "type": "function"
    },
    {
      "inputs": [
        {
          "internalType": "address",
          "name": "_owner",
          "type": "address"
        }
      ],
      "name": "balanceOf",
      "outputs": [
        {
          "internalType": "uint256",
          "name": "",
          "type": "uint256"
        }
      ],
      "stateMutability": "view",
      "type": "function"
    },
    {
      "inputs": [
        {
          "internalType": "uint256",
          "name": "_tokenId",
          "type": "uint256"
        }
      ],
      "name": "getApproved",
      "outputs": [
        {
          "internalType": "address",
          "name": "",
          "type": "address"
        }
      ],
      "stateMutability": "view",
      "type": "function"
    },
    {
      "inputs": [
        {
          "internalType": "address",
          "name": "_owner",
          "type": "address"
        },
        {
          "internalType": "address",
          "name": "_operator",
          "type": "address"
        }
      ],
      "name": "isApprovedForAll",
      "outputs": [
        {
          "internalType": "bool",
          "name": "",
          "type": "bool"
        }
      ],
      "stateMutability": "view",
      "type": "function"
    },
    {
      "inputs": [
        {
          "internalType": "address",
          "name": "_to",
          "type": "address"
        },
        {
          "internalType": "string",
          "name": "_uri",
          "type": "string"
        }
      ],
      "name": "mint",
      "outputs": [],
      "stateMutability": "nonpayable",
      "type": "function"
    },
    {
      "inputs": [],
      "name": "name",
      "outputs": [
        {
          "internalType": "string",
          "name": "_name",
          "type": "string"
        }
      ],
      "stateMutability": "view",
      "type": "function"
    },
    {
      "inputs": [
        {
          "internalType": "uint256",
          "name": "_tokenId",
          "type": "uint256"
        }
      ],
      "name": "ownerOf",
      "outputs": [
        {
          "internalType": "address",
          "name": "_owner",
          "type": "address"
        }
      ],
      "stateMutability": "view",
      "type": "function"
    },
    {
      "inputs": [
        {
          "internalType": "address",
          "name": "_from",
          "type": "address"
        },
        {
          "internalType": "address",
          "name": "_to",
          "type": "address"
        },
        {
          "internalType": "uint256",
          "name": "_tokenId",
          "type": "uint256"
        }
      ],
      "name": "safeTransferFrom",
      "outputs": [],
      "stateMutability": "nonpayable",
      "type": "function"
    },
    {
      "inputs": [
        {
          "internalType": "address",
          "name": "_from",
          "type": "address"
        },
        {
          "internalType": "address",
          "name": "_to",
          "type": "address"
        },
        {
          "internalType": "uint256",
          "name": "_tokenId",
          "type": "uint256"
        },
        {
          "internalType": "bytes",
          "name": "_data",
          "type": "bytes"
        }
      ],
      "name": "safeTransferFrom",
      "outputs": [],
      "stateMutability": "nonpayable",
      "type": "function"
    },
    {
      "inputs": [
        {
          "internalType": "address",
          "name": "_operator",
          "type": "address"
        },
        {
          "internalType": "bool",
          "name": "_approved",
          "type": "bool"
        }
      ],
      "name": "setApprovalForAll",
      "outputs": [],
      "stateMutability": "nonpayable",
      "type": "function"
    },
    {
      "inputs": [
        {
          "internalType": "bytes4",
          "name": "_interfaceID",
          "type": "bytes4"
        }
      ],
      "name": "supportsInterface",
      "outputs": [
        {
          "internalType": "bool",
          "name": "",
          "type": "bool"
        }
      ],
      "stateMutability": "view",
      "type": "function"
    },
    {
      "inputs": [],
      "name": "symbol",
      "outputs": [
        {
          "internalType": "string",
          "name": "_symbol",
          "type": "string"
        }
      ],
      "stateMutability": "view",
      "type": "function"
    },
    {
      "inputs": [
        {
          "internalType": "uint256",
          "name": "_index",
          "type": "uint256"
        }
      ],
      "name": "tokenByIndex",
      "outputs": [
        {
          "internalType": "uint256",
          "name": "",
          "type": "uint256"
        }
      ],
      "stateMutability": "view",
      "type": "function"
    },
    {
      "inputs": [
        {
          "internalType": "address",
          "name": "_owner",
          "type": "address"
        },
        {
          "internalType": "uint256",
          "name": "_index",
          "type": "uint256"
        }
      ],
      "name": "tokenOfOwnerByIndex",
      "outputs": [
        {
          "internalType": "uint256",
          "name": "",
          "type": "uint256"
        }
      ],
      "stateMutability": "view",
      "type": "function"
    },
    {
      "inputs": [
        {
          "internalType": "uint256",
          "name": "_tokenId",
          "type": "uint256"
        }
      ],
      "name": "tokenURI",
      "outputs": [
        {
          "internalType": "string",
          "name": "",
          "type": "string"
        }
      ],
      "stateMutability": "view",
      "type": "function"
    },
    {
      "inputs": [],
      "name": "totalSupply",
      "outputs": [
        {
          "internalType": "uint256",
          "name": "",
          "type": "uint256"
        }
      ],
      "stateMutability": "view",
      "type": "function"
    },
    {
      "inputs": [
        {
          "internalType": "address",
          "name": "_from",
          "type": "address"
        },
        {
          "internalType": "address",
          "name": "_to",
          "type": "address"
        },
        {
          "internalType": "uint256",
          "name": "_tokenId",
          "type": "uint256"
        }
      ],
      "name": "transferFrom",
      "outputs": [],
      "stateMutability": "nonpayable",
      "type": "function"
    }
  ],
  "transactionHash": "0x5798349e3939c6826907a675bcdfcfa7d3371fb22aa379cb7a3c8f8994235173",
  "args": [],
  "numDeployments": 2,
  "solcInputHash": "05db9b8e1ed56349bf493ee0c3cb18a2",
  "bytecode": "0x60806040523480156200001157600080fd5b50600060208181527f67be87c3ff9960ca1e9cfac5cab2ff4747269cf9ed20c9b7306235ac35a491c58054600160ff1991821681179092557ff7815fccbf112960a73756e185887fedcb9fc64ca0a16cc5923b7960ed78080080548216831790557f77b7bbe0e49b76487c9476b5db3354cf5270619d0037ccb899c2a4c4a75b43188054821683179055635b5e139f60e01b9093527f9562381dfbc2d8b8b66e765249f330164b73e329e5f01670660643571d1974df8054909316179091556040805180820190915260098082526814d413d3d38813919560ba1b919092019081526200010291600591906200013d565b506040805180820190915260058082526429a827a7a760d91b602090920191825262000131916006916200013d565b50600060075562000220565b8280546200014b90620001e3565b90600052602060002090601f0160209004810192826200016f5760008555620001ba565b82601f106200018a57805160ff1916838001178555620001ba565b82800160010185558215620001ba579182015b82811115620001ba5782518255916020019190600101906200019d565b50620001c8929150620001cc565b5090565b5b80821115620001c85760008155600101620001cd565b600181811c90821680620001f857607f821691505b602082108114156200021a57634e487b7160e01b600052602260045260246000fd5b50919050565b61177780620002306000396000f3fe608060405234801561001057600080fd5b506004361061011b5760003560e01c80634f6ccce7116100b2578063a22cb46511610081578063c87b56dd11610066578063c87b56dd14610269578063d0def5211461027c578063e985e9c51461028f57600080fd5b8063a22cb46514610243578063b88d4fde1461025657600080fd5b80634f6ccce7146102025780636352211e1461021557806370a082311461022857806395d89b411461023b57600080fd5b806318160ddd116100ee57806318160ddd146101b757806323b872dd146101c95780632f745c59146101dc57806342842e0e146101ef57600080fd5b806301ffc9a71461012057806306fdde0314610162578063081812fc14610177578063095ea7b3146101a2575b600080fd5b61014d61012e3660046115b9565b6001600160e01b03191660009081526020819052604090205460ff1690565b60405190151581526020015b60405180910390f35b61016a6102cb565b6040516101599190611695565b61018a6101853660046115f3565b61035d565b6040516001600160a01b039091168152602001610159565b6101b56101b036600461158f565b6103df565b005b6009545b604051908152602001610159565b6101b56101d7366004611455565b6105af565b6101bb6101ea36600461158f565b61076a565b6101b56101fd366004611455565b610801565b6101bb6102103660046115f3565b610821565b61018a6102233660046115f3565b610889565b6101bb610236366004611407565b6108e1565b61016a610945565b6101b5610251366004611500565b610954565b6101b5610264366004611491565b6109c0565b61016a6102773660046115f3565b610a09565b6101b561028a36600461153c565b610a75565b61014d61029d366004611422565b6001600160a01b03918216600090815260046020908152604080832093909416825291909152205460ff1690565b6060600580546102da906116bf565b80601f0160208091040260200160405190810160405280929190818152602001828054610306906116bf565b80156103535780601f1061032857610100808354040283529160200191610353565b820191906000526020600020905b81548152906001019060200180831161033657829003601f168201915b5050505050905090565b6000818152600160209081526040808320548151808301909252600682526518181998181960d11b9282019290925283916001600160a01b03166103bd5760405162461bcd60e51b81526004016103b49190611695565b60405180910390fd5b506000838152600260205260409020546001600160a01b031691505b50919050565b60008181526001602052604090205481906001600160a01b03163381148061042a57506001600160a01b038116600090815260046020908152604080832033845290915290205460ff165b6040518060400160405280600681526020017f30303330303300000000000000000000000000000000000000000000000000008152509061047e5760405162461bcd60e51b81526004016103b49190611695565b50600083815260016020908152604091829020548251808401909352600683526518181998181960d11b918301919091528491906001600160a01b03166104d85760405162461bcd60e51b81526004016103b49190611695565b50600084815260016020908152604091829020548251808401909352600683527f3030333030380000000000000000000000000000000000000000000000000000918301919091526001600160a01b039081169190871682141561054f5760405162461bcd60e51b81526004016103b49190611695565b5060008581526002602052604080822080546001600160a01b0319166001600160a01b038a811691821790925591518893918516917f8c5be1e5ebec7d5bd14f71427d1e84f3dd0314c0f7b2291e5b200ac8c7c3b92591a4505050505050565b60008181526001602052604090205481906001600160a01b0316338114806105ed57506000828152600260205260409020546001600160a01b031633145b8061061b57506001600160a01b038116600090815260046020908152604080832033845290915290205460ff165b604051806040016040528060068152602001650c0c0ccc0c0d60d21b815250906106585760405162461bcd60e51b81526004016103b49190611695565b50600083815260016020908152604091829020548251808401909352600683526518181998181960d11b918301919091528491906001600160a01b03166106b25760405162461bcd60e51b81526004016103b49190611695565b50600084815260016020908152604091829020548251808401909352600683526530303330303760d01b918301919091526001600160a01b039081169190881682146107115760405162461bcd60e51b81526004016103b49190611695565b5060408051808201909152600681526530303330303160d01b60208201526001600160a01b0387166107565760405162461bcd60e51b81526004016103b49190611695565b506107618686610ad8565b50505050505050565b6001600160a01b0382166000908152600b60209081526040808320548151808301909252600682526530303530303760d01b928201929092529083106107c35760405162461bcd60e51b81526004016103b49190611695565b506001600160a01b0383166000908152600b602052604090208054839081106107ee576107ee61173b565b9060005260206000200154905092915050565b61081c83838360405180602001604052806000815250610b63565b505050565b60095460408051808201909152600681526530303530303760d01b602082015260009183106108635760405162461bcd60e51b81526004016103b49190611695565b50600982815481106108775761087761173b565b90600052602060002001549050919050565b600081815260016020908152604091829020548251808401909352600683526518181998181960d11b918301919091526001600160a01b031690816103d95760405162461bcd60e51b81526004016103b49190611695565b60408051808201909152600681526530303330303160d01b60208201526000906001600160a01b0383166109285760405162461bcd60e51b81526004016103b49190611695565b50506001600160a01b03166000908152600b602052604090205490565b6060600680546102da906116bf565b3360008181526004602090815260408083206001600160a01b03871680855290835292819020805460ff191686151590811790915590519081529192917f17307eab39ab6107e8899845ad3d59bd9653f200f220920489ca2b5937696c31910160405180910390a35050565b610a0285858585858080601f016020809104026020016040519081016040528093929190818152602001838380828437600092019190915250610b6392505050565b5050505050565b600081815260016020908152604091829020548251808401909352600683526518181998181960d11b9183019190915260609183916001600160a01b0316610a645760405162461bcd60e51b81526004016103b49190611695565b50610a6e83610e28565b9392505050565b60078054906000610a85836116f4565b9190505550610a9683600754610eca565b61081c60075483838080601f016020809104026020016040519081016040528093929190818152602001838380828437600092019190915250610f2a92505050565b600081815260016020908152604080832054600290925290912080546001600160a01b03191690556001600160a01b0316610b138183610fa9565b610b1d8383611126565b81836001600160a01b0316826001600160a01b03167fddf252ad1be2c89b69c2b068fc378daa952ba7f163c4a11628f55a4df523b3ef60405160405180910390a4505050565b60008281526001602052604090205482906001600160a01b031633811480610ba157506000828152600260205260409020546001600160a01b031633145b80610bcf57506001600160a01b038116600090815260046020908152604080832033845290915290205460ff165b604051806040016040528060068152602001650c0c0ccc0c0d60d21b81525090610c0c5760405162461bcd60e51b81526004016103b49190611695565b50600084815260016020908152604091829020548251808401909352600683526518181998181960d11b918301919091528591906001600160a01b0316610c665760405162461bcd60e51b81526004016103b49190611695565b50600085815260016020908152604091829020548251808401909352600683526530303330303760d01b918301919091526001600160a01b03908116919089168214610cc55760405162461bcd60e51b81526004016103b49190611695565b5060408051808201909152600681526530303330303160d01b60208201526001600160a01b038816610d0a5760405162461bcd60e51b81526004016103b49190611695565b50610d158787610ad8565b610d27876001600160a01b03166111ea565b15610e1e57604051630a85bd0160e11b81526000906001600160a01b0389169063150b7a0290610d619033908d908c908c90600401611659565b602060405180830381600087803b158015610d7b57600080fd5b505af1158015610d8f573d6000803e3d6000fd5b505050506040513d601f19601f82011682018060405250810190610db391906115d6565b60408051808201909152600681527f303033303035000000000000000000000000000000000000000000000000000060208201529091506001600160e01b03198216630a85bd0160e11b14610e1b5760405162461bcd60e51b81526004016103b49190611695565b50505b5050505050505050565b6000818152600860205260409020805460609190610e45906116bf565b80601f0160208091040260200160405190810160405280929190818152602001828054610e71906116bf565b8015610ebe5780601f10610e9357610100808354040283529160200191610ebe565b820191906000526020600020905b815481529060010190602001808311610ea157829003601f168201915b50505050509050919050565b610ed48282611226565b600980546001818101835560008390527f6e1540171b6c0c960b71a7020d9f60077f6af931a8bbf590da0223dacf75c7af9091018390559054610f1791906116a8565b6000918252600a60205260409091205550565b600082815260016020908152604091829020548251808401909352600683526518181998181960d11b918301919091528391906001600160a01b0316610f835760405162461bcd60e51b81526004016103b49190611695565b5060008381526008602090815260409091208351610fa392850190611309565b50505050565b600081815260016020908152604091829020548251808401909352600683526530303330303760d01b918301919091526001600160a01b038481169116146110045760405162461bcd60e51b81526004016103b49190611695565b50600081815260016020818152604080842080546001600160a01b0319169055600c8252808420546001600160a01b0387168552600b90925283205490929161104c916116a8565b90508181146110e3576001600160a01b0384166000908152600b6020526040812080548390811061107f5761107f61173b565b9060005260206000200154905080600b6000876001600160a01b03166001600160a01b0316815260200190815260200160002084815481106110c3576110c361173b565b6000918252602080832090910192909255918252600c9052604090208290555b6001600160a01b0384166000908152600b6020526040902080548061110a5761110a611725565b6001900381819060005260206000200160009055905550505050565b600081815260016020908152604091829020548251808401909352600683526518181998181b60d11b918301919091526001600160a01b03161561117d5760405162461bcd60e51b81526004016103b49190611695565b50600081815260016020818152604080842080546001600160a01b0319166001600160a01b038816908117909155808552600b83529084208054808501825581865292852090920185905590925290546111d791906116a8565b6000918252600c60205260409091205550565b6000813f7fc5d2460186f7233c927e7db2dcc703c0e500b653ca82273b7bfad8045d85a470811580159061121e5750808214155b949350505050565b60408051808201909152600681526530303330303160d01b60208201526001600160a01b03831661126a5760405162461bcd60e51b81526004016103b49190611695565b50600081815260016020908152604091829020548251808401909352600683526518181998181b60d11b918301919091526001600160a01b0316156112c25760405162461bcd60e51b81526004016103b49190611695565b506112cd8282611126565b60405181906001600160a01b038416906000907fddf252ad1be2c89b69c2b068fc378daa952ba7f163c4a11628f55a4df523b3ef908290a45050565b828054611315906116bf565b90600052602060002090601f016020900481019282611337576000855561137d565b82601f1061135057805160ff191683800117855561137d565b8280016001018555821561137d579182015b8281111561137d578251825591602001919060010190611362565b5061138992915061138d565b5090565b5b80821115611389576000815560010161138e565b80356001600160a01b03811681146113b957600080fd5b919050565b60008083601f8401126113d057600080fd5b50813567ffffffffffffffff8111156113e857600080fd5b60208301915083602082850101111561140057600080fd5b9250929050565b60006020828403121561141957600080fd5b610a6e826113a2565b6000806040838503121561143557600080fd5b61143e836113a2565b915061144c602084016113a2565b90509250929050565b60008060006060848603121561146a57600080fd5b611473846113a2565b9250611481602085016113a2565b9150604084013590509250925092565b6000806000806000608086880312156114a957600080fd5b6114b2866113a2565b94506114c0602087016113a2565b935060408601359250606086013567ffffffffffffffff8111156114e357600080fd5b6114ef888289016113be565b969995985093965092949392505050565b6000806040838503121561151357600080fd5b61151c836113a2565b91506020830135801515811461153157600080fd5b809150509250929050565b60008060006040848603121561155157600080fd5b61155a846113a2565b9250602084013567ffffffffffffffff81111561157657600080fd5b611582868287016113be565b9497909650939450505050565b600080604083850312156115a257600080fd5b6115ab836113a2565b946020939093013593505050565b6000602082840312156115cb57600080fd5b8135610a6e81611751565b6000602082840312156115e857600080fd5b8151610a6e81611751565b60006020828403121561160557600080fd5b5035919050565b6000815180845260005b8181101561163257602081850181015186830182015201611616565b81811115611644576000602083870101525b50601f01601f19169290920160200192915050565b60006001600160a01b0380871683528086166020840152508360408301526080606083015261168b608083018461160c565b9695505050505050565b602081526000610a6e602083018461160c565b6000828210156116ba576116ba61170f565b500390565b600181811c908216806116d357607f821691505b602082108114156103d957634e487b7160e01b600052602260045260246000fd5b60006000198214156117085761170861170f565b5060010190565b634e487b7160e01b600052601160045260246000fd5b634e487b7160e01b600052603160045260246000fd5b634e487b7160e01b600052603260045260246000fd5b6001600160e01b03198116811461176757600080fd5b5056fea164736f6c6343000807000a",
  "devdoc": {
    "details": "Optional enumeration implementation for ERC-721 non-fungible token standard.",
    "kind": "dev",
    "methods": {
      "approve(address,uint256)": {
        "details": "Set or reaffirm the approved address for an NFT. This function can be changed to payable.",
        "params": {
          "_approved": "Address to be approved for the given NFT ID.",
          "_tokenId": "ID of the token to be approved."
        }
      },
      "balanceOf(address)": {
        "details": "Returns the number of NFTs owned by `_owner`. NFTs assigned to the zero address are considered invalid, and this function throws for queries about the zero address.",
        "params": {
          "_owner": "Address for whom to query the balance."
        },
        "returns": {
          "_0": "Balance of _owner."
        }
      },
      "constructor": {
        "details": "Contract constructor."
      },
      "getApproved(uint256)": {
        "details": "Get the approved address for a single NFT.",
        "params": {
          "_tokenId": "ID of the NFT to query the approval of."
        },
        "returns": {
          "_0": "Address that _tokenId is approved for."
        }
      },
      "isApprovedForAll(address,address)": {
        "details": "Checks if `_operator` is an approved operator for `_owner`.",
        "params": {
          "_operator": "The address that acts on behalf of the owner.",
          "_owner": "The address that owns the NFTs."
        },
        "returns": {
          "_0": "True if approved for all, false otherwise."
        }
      },
      "name()": {
        "details": "Returns a descriptive name for a collection of NFTokens.",
        "returns": {
          "_name": "Representing name."
        }
      },
      "ownerOf(uint256)": {
        "details": "Returns the address of the owner of the NFT. NFTs assigned to the zero address are considered invalid, and queries about them do throw.",
        "params": {
          "_tokenId": "The identifier for an NFT."
        },
        "returns": {
          "_owner": "Address of _tokenId owner."
        }
      },
      "safeTransferFrom(address,address,uint256)": {
        "details": "Transfers the ownership of an NFT from one address to another address. This function can be changed to payable.",
        "params": {
          "_from": "The current owner of the NFT.",
          "_to": "The new owner.",
          "_tokenId": "The NFT to transfer."
        }
      },
      "safeTransferFrom(address,address,uint256,bytes)": {
        "details": "Transfers the ownership of an NFT from one address to another address. This function can be changed to payable.",
        "params": {
          "_data": "Additional data with no specified format, sent in call to `_to`.",
          "_from": "The current owner of the NFT.",
          "_to": "The new owner.",
          "_tokenId": "The NFT to transfer."
        }
      },
      "setApprovalForAll(address,bool)": {
        "details": "Enables or disables approval for a third party (\"operator\") to manage all of `msg.sender`'s assets. It also emits the ApprovalForAll event.",
        "params": {
          "_approved": "True if the operators is approved, false to revoke approval.",
          "_operator": "Address to add to the set of authorized operators."
        }
      },
      "supportsInterface(bytes4)": {
        "details": "Function to check which interfaces are suported by this contract.",
        "params": {
          "_interfaceID": "Id of the interface."
        },
        "returns": {
          "_0": "True if _interfaceID is supported, false otherwise."
        }
      },
      "symbol()": {
        "details": "Returns an abbreviated name for NFTokens.",
        "returns": {
          "_symbol": "Representing symbol."
        }
      },
      "tokenByIndex(uint256)": {
        "details": "Returns NFT ID by its index.",
        "params": {
          "_index": "A counter less than `totalSupply()`."
        },
        "returns": {
          "_0": "Token id."
        }
      },
      "tokenOfOwnerByIndex(address,uint256)": {
        "details": "returns the n-th NFT ID from a list of owner's tokens.",
        "params": {
          "_index": "Index number representing n-th token in owner's list of tokens.",
          "_owner": "Token owner's address."
        },
        "returns": {
          "_0": "Token id."
        }
      },
      "tokenURI(uint256)": {
        "details": "A distinct URI (RFC 3986) for a given NFT.",
        "params": {
          "_tokenId": "Id for which we want uri."
        },
        "returns": {
          "_0": "URI of _tokenId."
        }
      },
      "totalSupply()": {
        "details": "Returns the count of all existing NFTokens.",
        "returns": {
          "_0": "Total supply of NFTs."
        }
      },
      "transferFrom(address,address,uint256)": {
        "details": "Throws unless `msg.sender` is the current owner, an authorized operator, or the approved address for this NFT. Throws if `_from` is not the current owner. Throws if `_to` is the zero address. Throws if `_tokenId` is not a valid NFT. This function can be changed to payable.",
        "params": {
          "_from": "The current owner of the NFT.",
          "_to": "The new owner.",
          "_tokenId": "The NFT to transfer."
        }
      }
    },
    "stateVariables": {
      "INVALID_INDEX": {
        "details": "List of revert message codes. Implementing dApp should handle showing the correct message. Based on 0xcert framework error codes."
      },
      "idToIndex": {
        "details": "Mapping from token ID to its index in global tokens array."
      },
      "idToOwnerIndex": {
        "details": "Mapping from NFT ID to its index in the owner tokens list."
      },
      "idToUri": {
        "details": "Mapping from NFT ID to metadata uri."
      },
      "nftName": {
        "details": "A descriptive name for a collection of NFTs."
      },
      "nftSymbol": {
        "details": "An abbreviated name for NFTokens."
      },
      "ownerToIds": {
        "details": "Mapping from owner to list of owned NFT IDs."
      },
      "tokens": {
        "details": "Array of all NFT IDs."
      }
    },
    "version": 1
  },
  "userdoc": {
    "kind": "user",
    "methods": {
      "approve(address,uint256)": {
        "notice": "The zero address indicates there is no approved address. Throws unless `msg.sender` is the current NFT owner, or an authorized operator of the current owner."
      },
      "getApproved(uint256)": {
        "notice": "Throws if `_tokenId` is not a valid NFT."
      },
      "safeTransferFrom(address,address,uint256)": {
        "notice": "This works identically to the other function with an extra data parameter, except this function just sets data to \"\"."
      },
      "safeTransferFrom(address,address,uint256,bytes)": {
        "notice": "Throws unless `msg.sender` is the current owner, an authorized operator, or the approved address for this NFT. Throws if `_from` is not the current owner. Throws if `_to` is the zero address. Throws if `_tokenId` is not a valid NFT. When transfer is complete, this function checks if `_to` is a smart contract (code size > 0). If so, it calls `onERC721Received` on `_to` and throws if the return value is not `bytes4(keccak256(\"onERC721Received(address,uint256,bytes)\"))`."
      },
      "setApprovalForAll(address,bool)": {
        "notice": "This works even if sender doesn't own any tokens at the time."
      },
      "transferFrom(address,address,uint256)": {
        "notice": "The caller is responsible to confirm that `_to` is capable of receiving NFTs or else they may be permanently lost."
      }
    },
    "version": 1
  },
  "storageLayout": {
    "storage": [
      {
        "astId": 2388,
        "contract": "contracts/tokens/nf-token-emumMetadata.sol:NFTokenMetaEnumerable",
        "label": "supportedInterfaces",
        "offset": 0,
        "slot": "0",
        "type": "t_mapping(t_bytes4,t_bool)"
      },
      {
        "astId": 1711,
        "contract": "contracts/tokens/nf-token-emumMetadata.sol:NFTokenMetaEnumerable",
        "label": "idToOwner",
        "offset": 0,
        "slot": "1",
        "type": "t_mapping(t_uint256,t_address)"
      },
      {
        "astId": 1716,
        "contract": "contracts/tokens/nf-token-emumMetadata.sol:NFTokenMetaEnumerable",
        "label": "idToApproval",
        "offset": 0,
        "slot": "2",
        "type": "t_mapping(t_uint256,t_address)"
      },
      {
        "astId": 1721,
        "contract": "contracts/tokens/nf-token-emumMetadata.sol:NFTokenMetaEnumerable",
        "label": "ownerToNFTokenCount",
        "offset": 0,
        "slot": "3",
        "type": "t_mapping(t_address,t_uint256)"
      },
      {
        "astId": 1728,
        "contract": "contracts/tokens/nf-token-emumMetadata.sol:NFTokenMetaEnumerable",
        "label": "ownerToOperators",
        "offset": 0,
        "slot": "4",
        "type": "t_mapping(t_address,t_mapping(t_address,t_bool))"
      },
      {
        "astId": 769,
        "contract": "contracts/tokens/nf-token-emumMetadata.sol:NFTokenMetaEnumerable",
        "label": "nftName",
        "offset": 0,
        "slot": "5",
        "type": "t_string_storage"
      },
      {
        "astId": 772,
        "contract": "contracts/tokens/nf-token-emumMetadata.sol:NFTokenMetaEnumerable",
        "label": "nftSymbol",
        "offset": 0,
        "slot": "6",
        "type": "t_string_storage"
      },
      {
        "astId": 774,
        "contract": "contracts/tokens/nf-token-emumMetadata.sol:NFTokenMetaEnumerable",
        "label": "last_token_id",
        "offset": 0,
        "slot": "7",
        "type": "t_uint256"
      },
      {
        "astId": 779,
        "contract": "contracts/tokens/nf-token-emumMetadata.sol:NFTokenMetaEnumerable",
        "label": "idToUri",
        "offset": 0,
        "slot": "8",
        "type": "t_mapping(t_uint256,t_string_storage)"
      },
      {
        "astId": 787,
        "contract": "contracts/tokens/nf-token-emumMetadata.sol:NFTokenMetaEnumerable",
        "label": "tokens",
        "offset": 0,
        "slot": "9",
        "type": "t_array(t_uint256)dyn_storage"
      },
      {
        "astId": 792,
        "contract": "contracts/tokens/nf-token-emumMetadata.sol:NFTokenMetaEnumerable",
        "label": "idToIndex",
        "offset": 0,
        "slot": "10",
        "type": "t_mapping(t_uint256,t_uint256)"
      },
      {
        "astId": 798,
        "contract": "contracts/tokens/nf-token-emumMetadata.sol:NFTokenMetaEnumerable",
        "label": "ownerToIds",
        "offset": 0,
        "slot": "11",
        "type": "t_mapping(t_address,t_array(t_uint256)dyn_storage)"
      },
      {
        "astId": 803,
        "contract": "contracts/tokens/nf-token-emumMetadata.sol:NFTokenMetaEnumerable",
        "label": "idToOwnerIndex",
        "offset": 0,
        "slot": "12",
        "type": "t_mapping(t_uint256,t_uint256)"
      }
    ],
    "types": {
      "t_address": {
        "encoding": "inplace",
        "label": "address",
        "numberOfBytes": "20"
      },
      "t_array(t_uint256)dyn_storage": {
        "base": "t_uint256",
        "encoding": "dynamic_array",
        "label": "uint256[]",
        "numberOfBytes": "32"
      },
      "t_bool": {
        "encoding": "inplace",
        "label": "bool",
        "numberOfBytes": "1"
      },
      "t_bytes4": {
        "encoding": "inplace",
        "label": "bytes4",
        "numberOfBytes": "4"
      },
      "t_mapping(t_address,t_array(t_uint256)dyn_storage)": {
        "encoding": "mapping",
        "key": "t_address",
        "label": "mapping(address => uint256[])",
        "numberOfBytes": "32",
        "value": "t_array(t_uint256)dyn_storage"
      },
      "t_mapping(t_address,t_bool)": {
        "encoding": "mapping",
        "key": "t_address",
        "label": "mapping(address => bool)",
        "numberOfBytes": "32",
        "value": "t_bool"
      },
      "t_mapping(t_address,t_mapping(t_address,t_bool))": {
        "encoding": "mapping",
        "key": "t_address",
        "label": "mapping(address => mapping(address => bool))",
        "numberOfBytes": "32",
        "value": "t_mapping(t_address,t_bool)"
      },
      "t_mapping(t_address,t_uint256)": {
        "encoding": "mapping",
        "key": "t_address",
        "label": "mapping(address => uint256)",
        "numberOfBytes": "32",
        "value": "t_uint256"
      },
      "t_mapping(t_bytes4,t_bool)": {
        "encoding": "mapping",
        "key": "t_bytes4",
        "label": "mapping(bytes4 => bool)",
        "numberOfBytes": "32",
        "value": "t_bool"
      },
      "t_mapping(t_uint256,t_address)": {
        "encoding": "mapping",
        "key": "t_uint256",
        "label": "mapping(uint256 => address)",
        "numberOfBytes": "32",
        "value": "t_address"
      },
      "t_mapping(t_uint256,t_string_storage)": {
        "encoding": "mapping",
        "key": "t_uint256",
        "label": "mapping(uint256 => string)",
        "numberOfBytes": "32",
        "value": "t_string_storage"
      },
      "t_mapping(t_uint256,t_uint256)": {
        "encoding": "mapping",
        "key": "t_uint256",
        "label": "mapping(uint256 => uint256)",
        "numberOfBytes": "32",
        "value": "t_uint256"
      },
      "t_string_storage": {
        "encoding": "bytes",
        "label": "string",
        "numberOfBytes": "32"
      },
      "t_uint256": {
        "encoding": "inplace",
        "label": "uint256",
        "numberOfBytes": "32"
      }
    }
  }
}